{
  "_format": "hh-sol-artifact-1",
  "contractName": "MyNFT",
  "sourceName": "contracts/MyNFT.sol",
  "abi": [
    {
      "inputs": [
        {
          "internalType": "uint256",
          "name": "maxMintingLimit",
          "type": "uint256"
        },
        {
          "internalType": "uint256",
          "name": "mintingStartTime",
          "type": "uint256"
        },
        {
          "internalType": "uint256",
          "name": "mintingEndTime",
          "type": "uint256"
        }
      ],
      "stateMutability": "nonpayable",
      "type": "constructor"
    },
    {
      "anonymous": false,
      "inputs": [
        {
          "indexed": true,
          "internalType": "address",
          "name": "owner",
          "type": "address"
        },
        {
          "indexed": true,
          "internalType": "address",
          "name": "approved",
          "type": "address"
        },
        {
          "indexed": true,
          "internalType": "uint256",
          "name": "tokenId",
          "type": "uint256"
        }
      ],
      "name": "Approval",
      "type": "event"
    },
    {
      "anonymous": false,
      "inputs": [
        {
          "indexed": true,
          "internalType": "address",
          "name": "owner",
          "type": "address"
        },
        {
          "indexed": true,
          "internalType": "address",
          "name": "operator",
          "type": "address"
        },
        {
          "indexed": false,
          "internalType": "bool",
          "name": "approved",
          "type": "bool"
        }
      ],
      "name": "ApprovalForAll",
      "type": "event"
    },
    {
      "anonymous": false,
      "inputs": [
        {
          "indexed": false,
          "internalType": "uint256",
          "name": "_fromTokenId",
          "type": "uint256"
        },
        {
          "indexed": false,
          "internalType": "uint256",
          "name": "_toTokenId",
          "type": "uint256"
        }
      ],
      "name": "BatchMetadataUpdate",
      "type": "event"
    },
    {
      "anonymous": false,
      "inputs": [
        {
          "indexed": false,
          "internalType": "uint256",
          "name": "_tokenId",
          "type": "uint256"
        }
      ],
      "name": "MetadataUpdate",
      "type": "event"
    },
    {
      "anonymous": false,
      "inputs": [
        {
          "indexed": true,
          "internalType": "address",
          "name": "previousOwner",
          "type": "address"
        },
        {
          "indexed": true,
          "internalType": "address",
          "name": "newOwner",
          "type": "address"
        }
      ],
      "name": "OwnershipTransferred",
      "type": "event"
    },
    {
      "anonymous": false,
      "inputs": [
        {
          "indexed": true,
          "internalType": "address",
          "name": "from",
          "type": "address"
        },
        {
          "indexed": true,
          "internalType": "address",
          "name": "to",
          "type": "address"
        },
        {
          "indexed": true,
          "internalType": "uint256",
          "name": "tokenId",
          "type": "uint256"
        }
      ],
      "name": "Transfer",
      "type": "event"
    },
    {
      "inputs": [
        {
          "internalType": "address",
          "name": "to",
          "type": "address"
        },
        {
          "internalType": "uint256",
          "name": "tokenId",
          "type": "uint256"
        }
      ],
      "name": "approve",
      "outputs": [],
      "stateMutability": "nonpayable",
      "type": "function"
    },
    {
      "inputs": [
        {
          "internalType": "address",
          "name": "owner",
          "type": "address"
        }
      ],
      "name": "balanceOf",
      "outputs": [
        {
          "internalType": "uint256",
          "name": "",
          "type": "uint256"
        }
      ],
      "stateMutability": "view",
      "type": "function"
    },
    {
      "inputs": [],
      "name": "count",
      "outputs": [
        {
          "internalType": "uint256",
          "name": "",
          "type": "uint256"
        }
      ],
      "stateMutability": "view",
      "type": "function"
    },
    {
      "inputs": [
        {
          "internalType": "uint256",
          "name": "tokenId",
          "type": "uint256"
        }
      ],
      "name": "getApproved",
      "outputs": [
        {
          "internalType": "address",
          "name": "",
          "type": "address"
        }
      ],
      "stateMutability": "view",
      "type": "function"
    },
    {
      "inputs": [
        {
          "internalType": "address",
          "name": "owner",
          "type": "address"
        },
        {
          "internalType": "address",
          "name": "operator",
          "type": "address"
        }
      ],
      "name": "isApprovedForAll",
      "outputs": [
        {
          "internalType": "bool",
          "name": "",
          "type": "bool"
        }
      ],
      "stateMutability": "view",
      "type": "function"
    },
    {
      "inputs": [
        {
          "internalType": "address",
          "name": "recipient",
          "type": "address"
        },
        {
          "internalType": "string",
          "name": "tokenURI",
          "type": "string"
        },
        {
          "internalType": "string",
          "name": "receipt",
          "type": "string"
        }
      ],
      "name": "mintNFT",
      "outputs": [
        {
          "internalType": "uint256",
          "name": "",
          "type": "uint256"
        }
      ],
      "stateMutability": "nonpayable",
      "type": "function"
    },
    {
      "inputs": [],
      "name": "name",
      "outputs": [
        {
          "internalType": "string",
          "name": "",
          "type": "string"
        }
      ],
      "stateMutability": "view",
      "type": "function"
    },
    {
      "inputs": [],
      "name": "owner",
      "outputs": [
        {
          "internalType": "address",
          "name": "",
          "type": "address"
        }
      ],
      "stateMutability": "view",
      "type": "function"
    },
    {
      "inputs": [
        {
          "internalType": "uint256",
          "name": "tokenId",
          "type": "uint256"
        }
      ],
      "name": "ownerOf",
      "outputs": [
        {
          "internalType": "address",
          "name": "",
          "type": "address"
        }
      ],
      "stateMutability": "view",
      "type": "function"
    },
    {
      "inputs": [],
      "name": "renounceOwnership",
      "outputs": [],
      "stateMutability": "nonpayable",
      "type": "function"
    },
    {
      "inputs": [
        {
          "internalType": "address",
          "name": "from",
          "type": "address"
        },
        {
          "internalType": "address",
          "name": "to",
          "type": "address"
        },
        {
          "internalType": "uint256",
          "name": "tokenId",
          "type": "uint256"
        }
      ],
      "name": "safeTransferFrom",
      "outputs": [],
      "stateMutability": "nonpayable",
      "type": "function"
    },
    {
      "inputs": [
        {
          "internalType": "address",
          "name": "from",
          "type": "address"
        },
        {
          "internalType": "address",
          "name": "to",
          "type": "address"
        },
        {
          "internalType": "uint256",
          "name": "tokenId",
          "type": "uint256"
        },
        {
          "internalType": "bytes",
          "name": "data",
          "type": "bytes"
        }
      ],
      "name": "safeTransferFrom",
      "outputs": [],
      "stateMutability": "nonpayable",
      "type": "function"
    },
    {
      "inputs": [
        {
          "internalType": "address",
          "name": "operator",
          "type": "address"
        },
        {
          "internalType": "bool",
          "name": "approved",
          "type": "bool"
        }
      ],
      "name": "setApprovalForAll",
      "outputs": [],
      "stateMutability": "nonpayable",
      "type": "function"
    },
    {
      "inputs": [
        {
          "internalType": "bytes4",
          "name": "interfaceId",
          "type": "bytes4"
        }
      ],
      "name": "supportsInterface",
      "outputs": [
        {
          "internalType": "bool",
          "name": "",
          "type": "bool"
        }
      ],
      "stateMutability": "view",
      "type": "function"
    },
    {
      "inputs": [],
      "name": "symbol",
      "outputs": [
        {
          "internalType": "string",
          "name": "",
          "type": "string"
        }
      ],
      "stateMutability": "view",
      "type": "function"
    },
    {
      "inputs": [
        {
          "internalType": "uint256",
          "name": "tokenId",
          "type": "uint256"
        }
      ],
      "name": "tokenURI",
      "outputs": [
        {
          "internalType": "string",
          "name": "",
          "type": "string"
        }
      ],
      "stateMutability": "view",
      "type": "function"
    },
    {
      "inputs": [
        {
          "internalType": "address",
          "name": "from",
          "type": "address"
        },
        {
          "internalType": "address",
          "name": "to",
          "type": "address"
        },
        {
          "internalType": "uint256",
          "name": "tokenId",
          "type": "uint256"
        }
      ],
      "name": "transferFrom",
      "outputs": [],
      "stateMutability": "nonpayable",
      "type": "function"
    },
    {
      "inputs": [
        {
          "internalType": "address",
          "name": "newOwner",
          "type": "address"
        }
      ],
      "name": "transferOwnership",
      "outputs": [],
      "stateMutability": "nonpayable",
      "type": "function"
    }
  ],
  "bytecode": "0x60806040523480156200001157600080fd5b50604051620039a5380380620039a5833981810160405281019062000037919062000262565b6040518060400160405280600581526020017f4d794e46540000000000000000000000000000000000000000000000000000008152506040518060400160405280600381526020017f4e465400000000000000000000000000000000000000000000000000000000008152508160009081620000b491906200052e565b508060019081620000c691906200052e565b505050620000e9620000dd6200015460201b60201c565b6200015c60201b60201c565b8082106200012e576040517f08c379a000000000000000000000000000000000000000000000000000000000815260040162000125906200069c565b60405180910390fd5b600060098190555082600a8190555081600b8190555080600c81905550505050620006be565b600033905090565b6000600760009054906101000a900473ffffffffffffffffffffffffffffffffffffffff16905081600760006101000a81548173ffffffffffffffffffffffffffffffffffffffff021916908373ffffffffffffffffffffffffffffffffffffffff1602179055508173ffffffffffffffffffffffffffffffffffffffff168173ffffffffffffffffffffffffffffffffffffffff167f8be0079c531659141344cd1fd0a4f28419497f9722a3daafe3b4186f6b6457e060405160405180910390a35050565b600080fd5b6000819050919050565b6200023c8162000227565b81146200024857600080fd5b50565b6000815190506200025c8162000231565b92915050565b6000806000606084860312156200027e576200027d62000222565b5b60006200028e868287016200024b565b9350506020620002a1868287016200024b565b9250506040620002b4868287016200024b565b9150509250925092565b600081519050919050565b7f4e487b7100000000000000000000000000000000000000000000000000000000600052604160045260246000fd5b7f4e487b7100000000000000000000000000000000000000000000000000000000600052602260045260246000fd5b600060028204905060018216806200034057607f821691505b602082108103620003565762000355620002f8565b5b50919050565b60008190508160005260206000209050919050565b60006020601f8301049050919050565b600082821b905092915050565b600060088302620003c07fffffffffffffffffffffffffffffffffffffffffffffffffffffffffffffffff8262000381565b620003cc868362000381565b95508019841693508086168417925050509392505050565b6000819050919050565b60006200040f62000409620004038462000227565b620003e4565b62000227565b9050919050565b6000819050919050565b6200042b83620003ee565b620004436200043a8262000416565b8484546200038e565b825550505050565b600090565b6200045a6200044b565b6200046781848462000420565b505050565b5b818110156200048f576200048360008262000450565b6001810190506200046d565b5050565b601f821115620004de57620004a8816200035c565b620004b38462000371565b81016020851015620004c3578190505b620004db620004d28562000371565b8301826200046c565b50505b505050565b600082821c905092915050565b60006200050360001984600802620004e3565b1980831691505092915050565b60006200051e8383620004f0565b9150826002028217905092915050565b6200053982620002be565b67ffffffffffffffff811115620005555762000554620002c9565b5b62000561825462000327565b6200056e82828562000493565b600060209050601f831160018114620005a6576000841562000591578287015190505b6200059d858262000510565b8655506200060d565b601f198416620005b6866200035c565b60005b82811015620005e057848901518255600182019150602085019450602081019050620005b9565b86831015620006005784890151620005fc601f891682620004f0565b8355505b6001600288020188555050505b505050505050565b600082825260208201905092915050565b7f6d696e74696e67537461727454696d65206d757374206265206c65737320746860008201527f616e206d696e74696e67456e6454696d65000000000000000000000000000000602082015250565b60006200068460318362000615565b9150620006918262000626565b604082019050919050565b60006020820190508181036000830152620006b78162000675565b9050919050565b6132d780620006ce6000396000f3fe608060405234801561001057600080fd5b50600436106101165760003560e01c8063715018a6116100a2578063a3ee38ae11610071578063a3ee38ae146102cd578063b88d4fde146102fd578063c87b56dd14610319578063e985e9c514610349578063f2fde38b1461037957610116565b8063715018a61461026b5780638da5cb5b1461027557806395d89b4114610293578063a22cb465146102b157610116565b8063095ea7b3116100e9578063095ea7b3146101b757806323b872dd146101d357806342842e0e146101ef5780636352211e1461020b57806370a082311461023b57610116565b806301ffc9a71461011b57806306661abd1461014b57806306fdde0314610169578063081812fc14610187575b600080fd5b61013560048036038101906101309190611e4c565b610395565b6040516101429190611e94565b60405180910390f35b6101536103f6565b6040516101609190611ec8565b60405180910390f35b610171610407565b60405161017e9190611f73565b60405180910390f35b6101a1600480360381019061019c9190611fc1565b610499565b6040516101ae919061202f565b60405180910390f35b6101d160048036038101906101cc9190612076565b6104df565b005b6101ed60048036038101906101e891906120b6565b6105f6565b005b610209600480360381019061020491906120b6565b610656565b005b61022560048036038101906102209190611fc1565b610676565b604051610232919061202f565b60405180910390f35b61025560048036038101906102509190612109565b6106fc565b6040516102629190611ec8565b60405180910390f35b6102736107b3565b005b61027d6107c7565b60405161028a919061202f565b60405180910390f35b61029b6107f1565b6040516102a89190611f73565b60405180910390f35b6102cb60048036038101906102c69190612162565b610883565b005b6102e760048036038101906102e291906122d7565b610899565b6040516102f49190611ec8565b60405180910390f35b61031760048036038101906103129190612403565b610aaa565b005b610333600480360381019061032e9190611fc1565b610b0c565b6040516103409190611f73565b60405180910390f35b610363600480360381019061035e9190612486565b610c1e565b6040516103709190611e94565b60405180910390f35b610393600480360381019061038e9190612109565b610cb2565b005b6000634906490660e01b7bffffffffffffffffffffffffffffffffffffffffffffffffffffffff1916827bffffffffffffffffffffffffffffffffffffffffffffffffffffffff191614806103ef57506103ee82610d35565b5b9050919050565b60006104026008610e17565b905090565b606060008054610416906124f5565b80601f0160208091040260200160405190810160405280929190818152602001828054610442906124f5565b801561048f5780601f106104645761010080835404028352916020019161048f565b820191906000526020600020905b81548152906001019060200180831161047257829003601f168201915b5050505050905090565b60006104a482610e25565b6004600083815260200190815260200160002060009054906101000a900473ffffffffffffffffffffffffffffffffffffffff169050919050565b60006104ea82610676565b90508073ffffffffffffffffffffffffffffffffffffffff168373ffffffffffffffffffffffffffffffffffffffff160361055a576040517f08c379a000000000000000000000000000000000000000000000000000000000815260040161055190612598565b60405180910390fd5b8073ffffffffffffffffffffffffffffffffffffffff16610579610e70565b73ffffffffffffffffffffffffffffffffffffffff1614806105a857506105a7816105a2610e70565b610c1e565b5b6105e7576040517f08c379a00000000000000000000000000000000000000000000000000000000081526004016105de9061262a565b60405180910390fd5b6105f18383610e78565b505050565b610607610601610e70565b82610f31565b610646576040517f08c379a000000000000000000000000000000000000000000000000000000000815260040161063d906126bc565b60405180910390fd5b610651838383610fc6565b505050565b61067183838360405180602001604052806000815250610aaa565b505050565b600080610682836112bf565b9050600073ffffffffffffffffffffffffffffffffffffffff168173ffffffffffffffffffffffffffffffffffffffff16036106f3576040517f08c379a00000000000000000000000000000000000000000000000000000000081526004016106ea90612728565b60405180910390fd5b80915050919050565b60008073ffffffffffffffffffffffffffffffffffffffff168273ffffffffffffffffffffffffffffffffffffffff160361076c576040517f08c379a0000000000000000000000000000000000000000000000000000000008152600401610763906127ba565b60405180910390fd5b600360008373ffffffffffffffffffffffffffffffffffffffff1673ffffffffffffffffffffffffffffffffffffffff168152602001908152602001600020549050919050565b6107bb6112fc565b6107c5600061137a565b565b6000600760009054906101000a900473ffffffffffffffffffffffffffffffffffffffff16905090565b606060018054610800906124f5565b80601f016020809104026020016040519081016040528092919081815260200182805461082c906124f5565b80156108795780601f1061084e57610100808354040283529160200191610879565b820191906000526020600020905b81548152906001019060200180831161085c57829003601f168201915b5050505050905090565b61089561088e610e70565b8383611440565b5050565b60006108a36112fc565b60008251116108e7576040517f08c379a00000000000000000000000000000000000000000000000000000000081526004016108de90612826565b60405180910390fd5b6000600d60008673ffffffffffffffffffffffffffffffffffffffff1673ffffffffffffffffffffffffffffffffffffffff1681526020019081526020016000208054610933906124f5565b905014610975576040517f08c379a000000000000000000000000000000000000000000000000000000000815260040161096c90612892565b60405180910390fd5b600b5442101580156109895750600c544211155b6109c8576040517f08c379a00000000000000000000000000000000000000000000000000000000081526004016109bf90612924565b60405180910390fd5b600a5460095410610a0e576040517f08c379a0000000000000000000000000000000000000000000000000000000008152600401610a0590612990565b60405180910390fd5b81600d60008673ffffffffffffffffffffffffffffffffffffffff1673ffffffffffffffffffffffffffffffffffffffff1681526020019081526020016000209081610a5a9190612b5c565b50610a6560086115ac565b6000610a716008610e17565b9050610a7d85826115c2565b610a8781856117df565b60096000815480929190610a9a90612c5d565b9190505550809150509392505050565b610abb610ab5610e70565b83610f31565b610afa576040517f08c379a0000000000000000000000000000000000000000000000000000000008152600401610af1906126bc565b60405180910390fd5b610b0684848484611883565b50505050565b6060610b1782610e25565b6000600660008481526020019081526020016000208054610b37906124f5565b80601f0160208091040260200160405190810160405280929190818152602001828054610b63906124f5565b8015610bb05780601f10610b8557610100808354040283529160200191610bb0565b820191906000526020600020905b815481529060010190602001808311610b9357829003601f168201915b505050505090506000610bc16118df565b90506000815103610bd6578192505050610c19565b600082511115610c0b578082604051602001610bf3929190612ce1565b60405160208183030381529060405292505050610c19565b610c14846118f6565b925050505b919050565b6000600560008473ffffffffffffffffffffffffffffffffffffffff1673ffffffffffffffffffffffffffffffffffffffff16815260200190815260200160002060008373ffffffffffffffffffffffffffffffffffffffff1673ffffffffffffffffffffffffffffffffffffffff16815260200190815260200160002060009054906101000a900460ff16905092915050565b610cba6112fc565b600073ffffffffffffffffffffffffffffffffffffffff168173ffffffffffffffffffffffffffffffffffffffff1603610d29576040517f08c379a0000000000000000000000000000000000000000000000000000000008152600401610d2090612d77565b60405180910390fd5b610d328161137a565b50565b60007f80ac58cd000000000000000000000000000000000000000000000000000000007bffffffffffffffffffffffffffffffffffffffffffffffffffffffff1916827bffffffffffffffffffffffffffffffffffffffffffffffffffffffff19161480610e0057507f5b5e139f000000000000000000000000000000000000000000000000000000007bffffffffffffffffffffffffffffffffffffffffffffffffffffffff1916827bffffffffffffffffffffffffffffffffffffffffffffffffffffffff1916145b80610e105750610e0f8261195e565b5b9050919050565b600081600001549050919050565b610e2e816119c8565b610e6d576040517f08c379a0000000000000000000000000000000000000000000000000000000008152600401610e6490612728565b60405180910390fd5b50565b600033905090565b816004600083815260200190815260200160002060006101000a81548173ffffffffffffffffffffffffffffffffffffffff021916908373ffffffffffffffffffffffffffffffffffffffff160217905550808273ffffffffffffffffffffffffffffffffffffffff16610eeb83610676565b73ffffffffffffffffffffffffffffffffffffffff167f8c5be1e5ebec7d5bd14f71427d1e84f3dd0314c0f7b2291e5b200ac8c7c3b92560405160405180910390a45050565b600080610f3d83610676565b90508073ffffffffffffffffffffffffffffffffffffffff168473ffffffffffffffffffffffffffffffffffffffff161480610f7f5750610f7e8185610c1e565b5b80610fbd57508373ffffffffffffffffffffffffffffffffffffffff16610fa584610499565b73ffffffffffffffffffffffffffffffffffffffff16145b91505092915050565b8273ffffffffffffffffffffffffffffffffffffffff16610fe682610676565b73ffffffffffffffffffffffffffffffffffffffff161461103c576040517f08c379a000000000000000000000000000000000000000000000000000000000815260040161103390612e09565b60405180910390fd5b600073ffffffffffffffffffffffffffffffffffffffff168273ffffffffffffffffffffffffffffffffffffffff16036110ab576040517f08c379a00000000000000000000000000000000000000000000000000000000081526004016110a290612e9b565b60405180910390fd5b6110b88383836001611a09565b8273ffffffffffffffffffffffffffffffffffffffff166110d882610676565b73ffffffffffffffffffffffffffffffffffffffff161461112e576040517f08c379a000000000000000000000000000000000000000000000000000000000815260040161112590612e09565b60405180910390fd5b6004600082815260200190815260200160002060006101000a81549073ffffffffffffffffffffffffffffffffffffffff02191690556001600360008573ffffffffffffffffffffffffffffffffffffffff1673ffffffffffffffffffffffffffffffffffffffff168152602001908152602001600020600082825403925050819055506001600360008473ffffffffffffffffffffffffffffffffffffffff1673ffffffffffffffffffffffffffffffffffffffff16815260200190815260200160002060008282540192505081905550816002600083815260200190815260200160002060006101000a81548173ffffffffffffffffffffffffffffffffffffffff021916908373ffffffffffffffffffffffffffffffffffffffff160217905550808273ffffffffffffffffffffffffffffffffffffffff168473ffffffffffffffffffffffffffffffffffffffff167fddf252ad1be2c89b69c2b068fc378daa952ba7f163c4a11628f55a4df523b3ef60405160405180910390a46112ba8383836001611a0f565b505050565b60006002600083815260200190815260200160002060009054906101000a900473ffffffffffffffffffffffffffffffffffffffff169050919050565b611304610e70565b73ffffffffffffffffffffffffffffffffffffffff166113226107c7565b73ffffffffffffffffffffffffffffffffffffffff1614611378576040517f08c379a000000000000000000000000000000000000000000000000000000000815260040161136f90612f07565b60405180910390fd5b565b6000600760009054906101000a900473ffffffffffffffffffffffffffffffffffffffff16905081600760006101000a81548173ffffffffffffffffffffffffffffffffffffffff021916908373ffffffffffffffffffffffffffffffffffffffff1602179055508173ffffffffffffffffffffffffffffffffffffffff168173ffffffffffffffffffffffffffffffffffffffff167f8be0079c531659141344cd1fd0a4f28419497f9722a3daafe3b4186f6b6457e060405160405180910390a35050565b8173ffffffffffffffffffffffffffffffffffffffff168373ffffffffffffffffffffffffffffffffffffffff16036114ae576040517f08c379a00000000000000000000000000000000000000000000000000000000081526004016114a590612f73565b60405180910390fd5b80600560008573ffffffffffffffffffffffffffffffffffffffff1673ffffffffffffffffffffffffffffffffffffffff16815260200190815260200160002060008473ffffffffffffffffffffffffffffffffffffffff1673ffffffffffffffffffffffffffffffffffffffff16815260200190815260200160002060006101000a81548160ff0219169083151502179055508173ffffffffffffffffffffffffffffffffffffffff168373ffffffffffffffffffffffffffffffffffffffff167f17307eab39ab6107e8899845ad3d59bd9653f200f220920489ca2b5937696c318360405161159f9190611e94565b60405180910390a3505050565b6001816000016000828254019250508190555050565b600073ffffffffffffffffffffffffffffffffffffffff168273ffffffffffffffffffffffffffffffffffffffff1603611631576040517f08c379a000000000000000000000000000000000000000000000000000000000815260040161162890612fdf565b60405180910390fd5b61163a816119c8565b1561167a576040517f08c379a00000000000000000000000000000000000000000000000000000000081526004016116719061304b565b60405180910390fd5b611688600083836001611a09565b611691816119c8565b156116d1576040517f08c379a00000000000000000000000000000000000000000000000000000000081526004016116c89061304b565b60405180910390fd5b6001600360008473ffffffffffffffffffffffffffffffffffffffff1673ffffffffffffffffffffffffffffffffffffffff16815260200190815260200160002060008282540192505081905550816002600083815260200190815260200160002060006101000a81548173ffffffffffffffffffffffffffffffffffffffff021916908373ffffffffffffffffffffffffffffffffffffffff160217905550808273ffffffffffffffffffffffffffffffffffffffff16600073ffffffffffffffffffffffffffffffffffffffff167fddf252ad1be2c89b69c2b068fc378daa952ba7f163c4a11628f55a4df523b3ef60405160405180910390a46117db600083836001611a0f565b5050565b6117e8826119c8565b611827576040517f08c379a000000000000000000000000000000000000000000000000000000000815260040161181e906130dd565b60405180910390fd5b806006600084815260200190815260200160002090816118479190612b5c565b507ff8e1a15aba9398e019f0b49df1a4fde98ee17ae345cb5f6b5e2c27f5033e8ce7826040516118779190611ec8565b60405180910390a15050565b61188e848484610fc6565b61189a84848484611a15565b6118d9576040517f08c379a00000000000000000000000000000000000000000000000000000000081526004016118d09061316f565b60405180910390fd5b50505050565b606060405180602001604052806000815250905090565b606061190182610e25565b600061190b6118df565b9050600081511161192b5760405180602001604052806000815250611956565b8061193584611b9c565b604051602001611946929190612ce1565b6040516020818303038152906040525b915050919050565b60007f01ffc9a7000000000000000000000000000000000000000000000000000000007bffffffffffffffffffffffffffffffffffffffffffffffffffffffff1916827bffffffffffffffffffffffffffffffffffffffffffffffffffffffff1916149050919050565b60008073ffffffffffffffffffffffffffffffffffffffff166119ea836112bf565b73ffffffffffffffffffffffffffffffffffffffff1614159050919050565b50505050565b50505050565b6000611a368473ffffffffffffffffffffffffffffffffffffffff16611c6a565b15611b8f578373ffffffffffffffffffffffffffffffffffffffff1663150b7a02611a5f610e70565b8786866040518563ffffffff1660e01b8152600401611a8194939291906131e4565b6020604051808303816000875af1925050508015611abd57506040513d601f19601f82011682018060405250810190611aba9190613245565b60015b611b3f573d8060008114611aed576040519150601f19603f3d011682016040523d82523d6000602084013e611af2565b606091505b506000815103611b37576040517f08c379a0000000000000000000000000000000000000000000000000000000008152600401611b2e9061316f565b60405180910390fd5b805181602001fd5b63150b7a0260e01b7bffffffffffffffffffffffffffffffffffffffffffffffffffffffff1916817bffffffffffffffffffffffffffffffffffffffffffffffffffffffff191614915050611b94565b600190505b949350505050565b606060006001611bab84611c8d565b01905060008167ffffffffffffffff811115611bca57611bc96121ac565b5b6040519080825280601f01601f191660200182016040528015611bfc5781602001600182028036833780820191505090505b509050600082602001820190505b600115611c5f578080600190039150507f3031323334353637383961626364656600000000000000000000000000000000600a86061a8153600a8581611c5357611c52613272565b5b04945060008503611c0a575b819350505050919050565b6000808273ffffffffffffffffffffffffffffffffffffffff163b119050919050565b600080600090507a184f03e93ff9f4daa797ed6e38ed64bf6a1f0100000000000000008310611ceb577a184f03e93ff9f4daa797ed6e38ed64bf6a1f0100000000000000008381611ce157611ce0613272565b5b0492506040810190505b6d04ee2d6d415b85acef81000000008310611d28576d04ee2d6d415b85acef81000000008381611d1e57611d1d613272565b5b0492506020810190505b662386f26fc100008310611d5757662386f26fc100008381611d4d57611d4c613272565b5b0492506010810190505b6305f5e1008310611d80576305f5e1008381611d7657611d75613272565b5b0492506008810190505b6127108310611da5576127108381611d9b57611d9a613272565b5b0492506004810190505b60648310611dc85760648381611dbe57611dbd613272565b5b0492506002810190505b600a8310611dd7576001810190505b80915050919050565b6000604051905090565b600080fd5b600080fd5b60007fffffffff0000000000000000000000000000000000000000000000000000000082169050919050565b611e2981611df4565b8114611e3457600080fd5b50565b600081359050611e4681611e20565b92915050565b600060208284031215611e6257611e61611dea565b5b6000611e7084828501611e37565b91505092915050565b60008115159050919050565b611e8e81611e79565b82525050565b6000602082019050611ea96000830184611e85565b92915050565b6000819050919050565b611ec281611eaf565b82525050565b6000602082019050611edd6000830184611eb9565b92915050565b600081519050919050565b600082825260208201905092915050565b60005b83811015611f1d578082015181840152602081019050611f02565b60008484015250505050565b6000601f19601f8301169050919050565b6000611f4582611ee3565b611f4f8185611eee565b9350611f5f818560208601611eff565b611f6881611f29565b840191505092915050565b60006020820190508181036000830152611f8d8184611f3a565b905092915050565b611f9e81611eaf565b8114611fa957600080fd5b50565b600081359050611fbb81611f95565b92915050565b600060208284031215611fd757611fd6611dea565b5b6000611fe584828501611fac565b91505092915050565b600073ffffffffffffffffffffffffffffffffffffffff82169050919050565b600061201982611fee565b9050919050565b6120298161200e565b82525050565b60006020820190506120446000830184612020565b92915050565b6120538161200e565b811461205e57600080fd5b50565b6000813590506120708161204a565b92915050565b6000806040838503121561208d5761208c611dea565b5b600061209b85828601612061565b92505060206120ac85828601611fac565b9150509250929050565b6000806000606084860312156120cf576120ce611dea565b5b60006120dd86828701612061565b93505060206120ee86828701612061565b92505060406120ff86828701611fac565b9150509250925092565b60006020828403121561211f5761211e611dea565b5b600061212d84828501612061565b91505092915050565b61213f81611e79565b811461214a57600080fd5b50565b60008135905061215c81612136565b92915050565b6000806040838503121561217957612178611dea565b5b600061218785828601612061565b92505060206121988582860161214d565b9150509250929050565b600080fd5b600080fd5b7f4e487b7100000000000000000000000000000000000000000000000000000000600052604160045260246000fd5b6121e482611f29565b810181811067ffffffffffffffff82111715612203576122026121ac565b5b80604052505050565b6000612216611de0565b905061222282826121db565b919050565b600067ffffffffffffffff821115612242576122416121ac565b5b61224b82611f29565b9050602081019050919050565b82818337600083830152505050565b600061227a61227584612227565b61220c565b905082815260208101848484011115612296576122956121a7565b5b6122a1848285612258565b509392505050565b600082601f8301126122be576122bd6121a2565b5b81356122ce848260208601612267565b91505092915050565b6000806000606084860312156122f0576122ef611dea565b5b60006122fe86828701612061565b935050602084013567ffffffffffffffff81111561231f5761231e611def565b5b61232b868287016122a9565b925050604084013567ffffffffffffffff81111561234c5761234b611def565b5b612358868287016122a9565b9150509250925092565b600067ffffffffffffffff82111561237d5761237c6121ac565b5b61238682611f29565b9050602081019050919050565b60006123a66123a184612362565b61220c565b9050828152602081018484840111156123c2576123c16121a7565b5b6123cd848285612258565b509392505050565b600082601f8301126123ea576123e96121a2565b5b81356123fa848260208601612393565b91505092915050565b6000806000806080858703121561241d5761241c611dea565b5b600061242b87828801612061565b945050602061243c87828801612061565b935050604061244d87828801611fac565b925050606085013567ffffffffffffffff81111561246e5761246d611def565b5b61247a878288016123d5565b91505092959194509250565b6000806040838503121561249d5761249c611dea565b5b60006124ab85828601612061565b92505060206124bc85828601612061565b9150509250929050565b7f4e487b7100000000000000000000000000000000000000000000000000000000600052602260045260246000fd5b6000600282049050600182168061250d57607f821691505b6020821081036125205761251f6124c6565b5b50919050565b7f4552433732313a20617070726f76616c20746f2063757272656e74206f776e6560008201527f7200000000000000000000000000000000000000000000000000000000000000602082015250565b6000612582602183611eee565b915061258d82612526565b604082019050919050565b600060208201905081810360008301526125b181612575565b9050919050565b7f4552433732313a20617070726f76652063616c6c6572206973206e6f7420746f60008201527f6b656e206f776e6572206f7220617070726f76656420666f7220616c6c000000602082015250565b6000612614603d83611eee565b915061261f826125b8565b604082019050919050565b6000602082019050818103600083015261264381612607565b9050919050565b7f4552433732313a2063616c6c6572206973206e6f7420746f6b656e206f776e6560008201527f72206f7220617070726f76656400000000000000000000000000000000000000602082015250565b60006126a6602d83611eee565b91506126b18261264a565b604082019050919050565b600060208201905081810360008301526126d581612699565b9050919050565b7f4552433732313a20696e76616c696420746f6b656e2049440000000000000000600082015250565b6000612712601883611eee565b915061271d826126dc565b602082019050919050565b6000602082019050818103600083015261274181612705565b9050919050565b7f4552433732313a2061646472657373207a65726f206973206e6f74206120766160008201527f6c6964206f776e65720000000000000000000000000000000000000000000000602082015250565b60006127a4602983611eee565b91506127af82612748565b604082019050919050565b600060208201905081810360008301526127d381612797565b9050919050565b7f5263656970742069732072657175697265642e00000000000000000000000000600082015250565b6000612810601383611eee565b915061281b826127da565b602082019050919050565b6000602082019050818103600083015261283f81612803565b9050919050565b7f526563656970742065786973747320616c726561647900000000000000000000600082015250565b600061287c601683611eee565b915061288782612846565b602082019050919050565b600060208201905081810360008301526128ab8161286f565b9050919050565b7f4d696e74696e67206973206e6f7420616c6c6f7765642061742074686973207460008201527f696d652e00000000000000000000000000000000000000000000000000000000602082015250565b600061290e602483611eee565b9150612919826128b2565b604082019050919050565b6000602082019050818103600083015261293d81612901565b9050919050565b7f4d6178696d756d206d696e74696e67206c696d69742072656163686564000000600082015250565b600061297a601d83611eee565b915061298582612944565b602082019050919050565b600060208201905081810360008301526129a98161296d565b9050919050565b60008190508160005260206000209050919050565b60006020601f8301049050919050565b600082821b905092915050565b600060088302612a127fffffffffffffffffffffffffffffffffffffffffffffffffffffffffffffffff826129d5565b612a1c86836129d5565b95508019841693508086168417925050509392505050565b6000819050919050565b6000612a59612a54612a4f84611eaf565b612a34565b611eaf565b9050919050565b6000819050919050565b612a7383612a3e565b612a87612a7f82612a60565b8484546129e2565b825550505050565b600090565b612a9c612a8f565b612aa7818484612a6a565b505050565b5b81811015612acb57612ac0600082612a94565b600181019050612aad565b5050565b601f821115612b1057612ae1816129b0565b612aea846129c5565b81016020851015612af9578190505b612b0d612b05856129c5565b830182612aac565b50505b505050565b600082821c905092915050565b6000612b3360001984600802612b15565b1980831691505092915050565b6000612b4c8383612b22565b9150826002028217905092915050565b612b6582611ee3565b67ffffffffffffffff811115612b7e57612b7d6121ac565b5b612b8882546124f5565b612b93828285612acf565b600060209050601f831160018114612bc65760008415612bb4578287015190505b612bbe8582612b40565b865550612c26565b601f198416612bd4866129b0565b60005b82811015612bfc57848901518255600182019150602085019450602081019050612bd7565b86831015612c195784890151612c15601f891682612b22565b8355505b6001600288020188555050505b505050505050565b7f4e487b7100000000000000000000000000000000000000000000000000000000600052601160045260246000fd5b6000612c6882611eaf565b91507fffffffffffffffffffffffffffffffffffffffffffffffffffffffffffffffff8203612c9a57612c99612c2e565b5b600182019050919050565b600081905092915050565b6000612cbb82611ee3565b612cc58185612ca5565b9350612cd5818560208601611eff565b80840191505092915050565b6000612ced8285612cb0565b9150612cf98284612cb0565b91508190509392505050565b7f4f776e61626c653a206e6577206f776e657220697320746865207a65726f206160008201527f6464726573730000000000000000000000000000000000000000000000000000602082015250565b6000612d61602683611eee565b9150612d6c82612d05565b604082019050919050565b60006020820190508181036000830152612d9081612d54565b9050919050565b7f4552433732313a207472616e736665722066726f6d20696e636f72726563742060008201527f6f776e6572000000000000000000000000000000000000000000000000000000602082015250565b6000612df3602583611eee565b9150612dfe82612d97565b604082019050919050565b60006020820190508181036000830152612e2281612de6565b9050919050565b7f4552433732313a207472616e7366657220746f20746865207a65726f2061646460008201527f7265737300000000000000000000000000000000000000000000000000000000602082015250565b6000612e85602483611eee565b9150612e9082612e29565b604082019050919050565b60006020820190508181036000830152612eb481612e78565b9050919050565b7f4f776e61626c653a2063616c6c6572206973206e6f7420746865206f776e6572600082015250565b6000612ef1602083611eee565b9150612efc82612ebb565b602082019050919050565b60006020820190508181036000830152612f2081612ee4565b9050919050565b7f4552433732313a20617070726f766520746f2063616c6c657200000000000000600082015250565b6000612f5d601983611eee565b9150612f6882612f27565b602082019050919050565b60006020820190508181036000830152612f8c81612f50565b9050919050565b7f4552433732313a206d696e7420746f20746865207a65726f2061646472657373600082015250565b6000612fc9602083611eee565b9150612fd482612f93565b602082019050919050565b60006020820190508181036000830152612ff881612fbc565b9050919050565b7f4552433732313a20746f6b656e20616c7265616479206d696e74656400000000600082015250565b6000613035601c83611eee565b915061304082612fff565b602082019050919050565b6000602082019050818103600083015261306481613028565b9050919050565b7f45524337323155524953746f726167653a2055524920736574206f66206e6f6e60008201527f6578697374656e7420746f6b656e000000000000000000000000000000000000602082015250565b60006130c7602e83611eee565b91506130d28261306b565b604082019050919050565b600060208201905081810360008301526130f6816130ba565b9050919050565b7f4552433732313a207472616e7366657220746f206e6f6e20455243373231526560008201527f63656976657220696d706c656d656e7465720000000000000000000000000000602082015250565b6000613159603283611eee565b9150613164826130fd565b604082019050919050565b600060208201905081810360008301526131888161314c565b9050919050565b600081519050919050565b600082825260208201905092915050565b60006131b68261318f565b6131c0818561319a565b93506131d0818560208601611eff565b6131d981611f29565b840191505092915050565b60006080820190506131f96000830187612020565b6132066020830186612020565b6132136040830185611eb9565b818103606083015261322581846131ab565b905095945050505050565b60008151905061323f81611e20565b92915050565b60006020828403121561325b5761325a611dea565b5b600061326984828501613230565b91505092915050565b7f4e487b7100000000000000000000000000000000000000000000000000000000600052601260045260246000fdfea2646970667358221220faec0d4e184e861c4729f2b142c229cccab296050fc8a40ef76acdbdb64ccd5664736f6c63430008130033",
  "linkReferences": {},
  "deployedLinkReferences": {}
}